:020000040800F2
:10000000880600208901000891010008930100087A
:100010009501000897010008990100080000000000
:100020000000000000000000000000009B0100082C
:100030009D010008000000009F010008B1060008B3
:10004000A3010008A3010008A3010008A301000800
:10005000A3010008A301000859020008A301000839
:10006000A3010008A3010008A3010008A3010008E0
:10007000A3010008A3010008A3010008A3010008D0
:10008000A3010008A3010008A3010008A3010008C0
:10009000A3010008A3010008A3010008A3010008B0
:1000A000A3010008A3010008A3010008A3010008A0
:1000B000A3010008A3010008A3010008A301000890
:1000C000A3010008A3010008A3010008A301000880
:1000D000A3010008A3010008A3010008A301000870
:1000E000A3010008A3010008A301000800F002F822
:1000F00000F03AF80AA090E8000C82448344AAF188
:100100000107DA4501D100F02FF8AFF2090EBAE885
:100110000F0013F0010F18BFFB1A43F0010318473B
:100120001806000038060000103A24BF78C878C1CD
:10013000FAD8520724BF30C830C144BF04680C60ED
:10014000704700000023002400250026103A28BF35
:1001500078C1FBD8520728BF30C148BF0B60704739
:100160001FB51FBD10B510BD00F031F81146FFF7E7
:10017000F7FF00F0DDFA00F04FF803B4FFF7F2FFED
:1001800003BC00F057F800000948804709480047C1
:10019000FEE7FEE7FEE7FEE7FEE7FEE7FEE7FEE737
:1001A000FEE7FEE704480549054A064B7047000094
:1001B000B9060008ED00000888000020880600202D
:1001C00088020020880200207047704770477546FB
:1001D00000F02CF8AE4605006946534620F00700B3
:1001E000854618B020B5FFF7DDFFBDE820404FF091
:1001F00000064FF000074FF000084FF0000B21F011
:100200000701AC46ACE8C009ACE8C009ACE8C009DD
:10021000ACE8C0098D46704710B50446AFF30080C6
:100220002046BDE81040FFF7A8BF00000048704717
:100230002400002001491820ABBEFEE72600020082
:10024000704700000349086000BF0249096800299F
:10025000FBD170472000002010B5012000F062F8AB
:1002600078B13220FFF7EEFF0121064800F05BF97C
:1002700020B905480068401C03490860012000F0CF
:1002800005F810BD00080140000000200149086089
:1002900070470000140401400149086070470000E5
:1002A0001404014010B50121052000F07DF9012062
:1002B00018490880032088704820C870164800F04C
:1002C000A7F80021084600F083F80120FFF7E4FFBB
:1002D000002012490871012008600C20487101209B
:1002E0008871084600F02AF806200D4908700020A1
:1002F000487088700120C870084600F01DF906207B
:10030000012181404209920002F1E022C2F800116D
:1003100000BF10BD100000200008014014000020A4
:100320001C00002001460020034A12680A400AB15E
:10033000012000E0002070471404014000212349FF
:100340008279002A3AD00A46126803689A430B461B
:100350001A600A1D126803689A430B1D1A6002791D
:1003600011440A6803681A430A60184A083212687E
:1003700003689A43154B08331A601A1D1268036804
:100380009A43124B0C331A604279102A0ED11A1F6D
:10039000126803681A430D4B08331A601A1D12685D
:1003A00003681A43094B0C331A600DE00749427980
:1003B00011440A6803681A430A6005E0027911448F
:1003C0000A6803689A430A6070470000000401400D
:1003D00030B500228B071C0F0F2303FA04F20B4BDE
:1003E0008C1053F824309343084C8D1044F825307A
:1003F00023468C1053F824308C07240F00FA04F4A1
:100400002343024C8D1044F8253030BD08000140D4
:100410002DE9F0410246002500260020002300249B
:10042000002791F803C00CF00F0591F803C00CF001
:10043000100CBCF1000F03D091F802C04CEA050586
:1004400091F800C0BCF1000F31D0146800202BE0FF
:100450004FF0010C0CFA00F3B1F800C00CEA0306EF
:100460009E4220D183004FF00F0C0CFA03F7BC43DF
:1004700005FA03FC4CEA040491F803C0BCF1280F10
:1004800006D14FF0010C0CFA00FCC2F814C00AE0CF
:1004900091F803C0BCF1480F05D14FF0010C0CFAE4
:1004A00000FCC2F810C0401C0828D1D31460B1F879
:1004B00000C0BCF1FF0F34DD546800202EE000F1D5
:1004C000080C4FF0010808FA0CF3B1F800C00CEA70
:1004D00003069E4221D183004FF00F0C0CFA03F764
:1004E000BC4305FA03FC4CEA040491F803C0BCF1D8
:1004F000280F05D100F1080C08FA0CF8C2F8148096
:1005000091F803C0BCF1480F07D100F1080C4FF07F
:10051000010808FA0CF8C2F81080401C0828CED355
:100520005460BDE8F0810246002093680B400BB197
:10053000012000E00020704770B5002100230F2249
:10054000C47804B3154C246804F4E064C4F5E06492
:10055000210AC1F10403CA40447804FA03F1847803
:100560001440214309010E4C0678A155047804F08B
:100570001F050124AC4005786D11AD0005F1E025A3
:10058000C5F8004109E0047804F01F050124AC40DF
:10059000044D0678761145F8264070BD0CED00E05C
:1005A00000E400E080E100E029B1064A92690243DC
:1005B000044B9A6104E0034A92698243014B9A61B9
:1005C000704700000010024010B500F001F810BDA7
:1005D0000CB50020019000903348006840F4803052
:1005E0003149086000BF3048006800F400300090D6
:1005F0000198401C0190009818B90198B0F5A06FBF
:10060000F1D12948006800F4003010B101200090B9
:1006100001E0002000900098012843D123480068A1
:1006200040F01000214908600846006820F00300EF
:1006300008600846006840F0020008601A484068F8
:10064000194948600846406848600846406840F4D8
:10065000806048600846406820F47C104860084686
:10066000406840F4E81048600846006840F0807038
:10067000086000BF0C48006800F000700028F9D046
:100680000948406820F00300074948600846406870
:1006900040F00200486000BF0348406800F00C00D2
:1006A0000828F9D10CBD00000010024000200240D3
:1006B00010B500F031F810BD10B51348006840F0D7
:1006C00001001149086008464068104908400E4979
:1006D0004860084600680E4908400B490860084613
:1006E000006820F4802008600846406820F4FE007E
:1006F00048604FF41F008860FFF766FF4FF000600E
:100700000449086010BD0000001002400000FFF81E
:10071000FFFFF6FE08ED00E00448006820B1034842
:100720000068401E0149086070470000200000205A
:10073000FFF7B8FD00BFFEE75807000800000020E3
:1007400024000000280100087C0700082400002085
:1007500064060000440100080000000000000000E2
:100760000000000000000000000000000000000089
:0C0770000000000000000000000000007D
:04000005080000ED02
:00000001FF
